:1000000000308A0004280000FF30A30083161F146C
:100010009F141F159F1107309C0083131F30830509
:100020000030850087008312A300FF30831686000E
:1000300083128700C7308700831606148312A0013D
:100040000618A00A831686148312A1018618A10A35
:10005000831606158312A2010619A20A200B312865
:100060003328003034280130A400A10803193A28AD
:1000700000303B280130A405A208031941280030B4
:1000800042280130240503194828413085008C2876
:10009000210B4B284D2800304E280130A400A00829
:1000A00003195428003055280130A405A20803196B
:1000B0005B2800305C280130240503196228483091
:1000C00085008C28220B65286728003068280130BD
:1000D000A400A00803196E2800306F280130A40581
:1000E000A10803197528003076280130240503196A
:1000F0007C28493085008C28831605108312051052
:10010000831685108312851083160511831205113D
:0C01100083168511831285111A286300E4
:02400E00323F3F
:00000001FF
;PIC16F877A
;CRC=0249  CREATED="29-Haz-19 15:48"
